{
  "contractName": "Faucet",
  "abi": [
    {
      "inputs": [],
      "name": "numOfFunders",
      "outputs": [
        {
          "internalType": "uint256",
          "name": "",
          "type": "uint256"
        }
      ],
      "stateMutability": "view",
      "type": "function",
      "constant": true
    },
    {
      "inputs": [],
      "name": "owner",
      "outputs": [
        {
          "internalType": "address",
          "name": "",
          "type": "address"
        }
      ],
      "stateMutability": "view",
      "type": "function",
      "constant": true
    },
    {
      "inputs": [],
      "name": "test5",
      "outputs": [
        {
          "internalType": "uint256",
          "name": "",
          "type": "uint256"
        }
      ],
      "stateMutability": "pure",
      "type": "function",
      "constant": true
    },
    {
      "inputs": [],
      "name": "testNum",
      "outputs": [
        {
          "internalType": "uint256",
          "name": "",
          "type": "uint256"
        }
      ],
      "stateMutability": "view",
      "type": "function",
      "constant": true
    },
    {
      "stateMutability": "payable",
      "type": "receive",
      "payable": true
    },
    {
      "inputs": [],
      "name": "emitLog",
      "outputs": [
        {
          "internalType": "bytes32",
          "name": "",
          "type": "bytes32"
        }
      ],
      "stateMutability": "pure",
      "type": "function",
      "constant": true
    },
    {
      "inputs": [],
      "name": "addFunds",
      "outputs": [],
      "stateMutability": "payable",
      "type": "function",
      "payable": true
    },
    {
      "inputs": [],
      "name": "test1",
      "outputs": [],
      "stateMutability": "nonpayable",
      "type": "function"
    },
    {
      "inputs": [],
      "name": "test2",
      "outputs": [],
      "stateMutability": "nonpayable",
      "type": "function"
    },
    {
      "inputs": [
        {
          "internalType": "uint256",
          "name": "withdrawAmount",
          "type": "uint256"
        }
      ],
      "name": "withdraw",
      "outputs": [],
      "stateMutability": "nonpayable",
      "type": "function"
    },
    {
      "inputs": [],
      "name": "getAllFunders",
      "outputs": [
        {
          "internalType": "address[]",
          "name": "",
          "type": "address[]"
        }
      ],
      "stateMutability": "view",
      "type": "function",
      "constant": true
    },
    {
      "inputs": [
        {
          "internalType": "uint8",
          "name": "index",
          "type": "uint8"
        }
      ],
      "name": "getFunderAtIndex",
      "outputs": [
        {
          "internalType": "address",
          "name": "",
          "type": "address"
        }
      ],
      "stateMutability": "view",
      "type": "function",
      "constant": true
    }
  ],
  "bytecode": "0x608060405234801561001057600080fd5b50336000806101000a81548173ffffffffffffffffffffffffffffffffffffffff021916908373ffffffffffffffffffffffffffffffffffffffff1602179055506103e8600181905550610b63806100696000396000f3fe6080604052600436106100a05760003560e01c80636fbbb55d116100645780636fbbb55d1461016b5780638da5cb5b14610196578063a26759cb146101c1578063ae28f1ed146101cb578063af7f2c9b146101f6578063f42c13bf14610221576100a7565b80630a93cf33146100ac5780631ad7be82146100e95780632e1a7d4d1461011457806366e41cb71461013d5780636b59084d14610154576100a7565b366100a757005b600080fd5b3480156100b857600080fd5b506100d360048036038101906100ce9190610778565b61024c565b6040516100e09190610899565b60405180910390f35b3480156100f557600080fd5b506100fe61028c565b60405161010b9190610931565b60405180910390f35b34801561012057600080fd5b5061013b6004803603810190610136919061074f565b61029e565b005b34801561014957600080fd5b50610152610335565b005b34801561016057600080fd5b506101696103c5565b005b34801561017757600080fd5b50610180610455565b60405161018d91906108b4565b60405180910390f35b3480156101a257600080fd5b506101ab61059b565b6040516101b89190610899565b60405180910390f35b6101c96105bf565b005b3480156101d757600080fd5b506101e06106e8565b6040516101ed9190610931565b60405180910390f35b34801561020257600080fd5b5061020b6106ee565b6040516102189190610931565b60405180910390f35b34801561022d57600080fd5b506102366106f4565b60405161024391906108d6565b60405180910390f35b6000600460008360ff16815260200190815260200160002060009054906101000a900473ffffffffffffffffffffffffffffffffffffffff169050919050565b600061029661071c565b50600a905090565b8067016345785d8a00008111156102ea576040517f08c379a00000000000000000000000000000000000000000000000000000000081526004016102e190610911565b60405180910390fd5b3373ffffffffffffffffffffffffffffffffffffffff166108fc839081150290604051600060405180830381858888f19350505050158015610330573d6000803e3d6000fd5b505050565b60008054906101000a900473ffffffffffffffffffffffffffffffffffffffff1673ffffffffffffffffffffffffffffffffffffffff163373ffffffffffffffffffffffffffffffffffffffff16146103c3576040517f08c379a00000000000000000000000000000000000000000000000000000000081526004016103ba906108f1565b60405180910390fd5b565b60008054906101000a900473ffffffffffffffffffffffffffffffffffffffff1673ffffffffffffffffffffffffffffffffffffffff163373ffffffffffffffffffffffffffffffffffffffff1614610453576040517f08c379a000000000000000000000000000000000000000000000000000000000815260040161044a906108f1565b60405180910390fd5b565b6060600060025467ffffffffffffffff81111561049b577f4e487b7100000000000000000000000000000000000000000000000000000000600052604160045260246000fd5b6040519080825280602002602001820160405280156104c95781602001602082028036833780820191505090505b50905060005b600254811015610593576004600082815260200190815260200160002060009054906101000a900473ffffffffffffffffffffffffffffffffffffffff16828281518110610546577f4e487b7100000000000000000000000000000000000000000000000000000000600052603260045260246000fd5b602002602001019073ffffffffffffffffffffffffffffffffffffffff16908173ffffffffffffffffffffffffffffffffffffffff1681525050808061058b906109e9565b9150506104cf565b508091505090565b60008054906101000a900473ffffffffffffffffffffffffffffffffffffffff1681565b60003390506105cc61071c565b50600360008273ffffffffffffffffffffffffffffffffffffffff1673ffffffffffffffffffffffffffffffffffffffff16815260200190815260200160002060009054906101000a900460ff166106e557600060026000815480929190610633906109e9565b9190505590506001600360008473ffffffffffffffffffffffffffffffffffffffff1673ffffffffffffffffffffffffffffffffffffffff16815260200190815260200160002060006101000a81548160ff021916908315150217905550816004600083815260200190815260200160002060006101000a81548173ffffffffffffffffffffffffffffffffffffffff021916908373ffffffffffffffffffffffffffffffffffffffff160217905550505b50565b60015481565b60025481565b60007f48656c6c6f20576f726c64000000000000000000000000000000000000000000905090565b60006064905090565b60008135905061073481610aff565b92915050565b60008135905061074981610b16565b92915050565b60006020828403121561076157600080fd5b600061076f84828501610725565b91505092915050565b60006020828403121561078a57600080fd5b60006107988482850161073a565b91505092915050565b60006107ad83836107b9565b60208301905092915050565b6107c281610996565b82525050565b6107d181610996565b82525050565b60006107e28261095c565b6107ec8185610974565b93506107f78361094c565b8060005b8381101561082857815161080f88826107a1565b975061081a83610967565b9250506001810190506107fb565b5085935050505092915050565b61083e816109a8565b82525050565b6000610851602183610985565b915061085c82610a61565b604082019050919050565b6000610874602383610985565b915061087f82610ab0565b604082019050919050565b610893816109d2565b82525050565b60006020820190506108ae60008301846107c8565b92915050565b600060208201905081810360008301526108ce81846107d7565b905092915050565b60006020820190506108eb6000830184610835565b92915050565b6000602082019050818103600083015261090a81610844565b9050919050565b6000602082019050818103600083015261092a81610867565b9050919050565b6000602082019050610946600083018461088a565b92915050565b6000819050602082019050919050565b600081519050919050565b6000602082019050919050565b600082825260208201905092915050565b600082825260208201905092915050565b60006109a1826109b2565b9050919050565b6000819050919050565b600073ffffffffffffffffffffffffffffffffffffffff82169050919050565b6000819050919050565b600060ff82169050919050565b60006109f4826109d2565b91507fffffffffffffffffffffffffffffffffffffffffffffffffffffffffffffffff821415610a2757610a26610a32565b5b600182019050919050565b7f4e487b7100000000000000000000000000000000000000000000000000000000600052601160045260246000fd5b7f4f6e6c79206f776e65722063616e2063616c6c20746869732066756e6374696f60008201527f6e00000000000000000000000000000000000000000000000000000000000000602082015250565b7f43616e6e6f74207769746864726177206d6f7265207468616e20302e3120657460008201527f6865720000000000000000000000000000000000000000000000000000000000602082015250565b610b08816109d2565b8114610b1357600080fd5b50565b610b1f816109dc565b8114610b2a57600080fd5b5056fea2646970667358221220361567990da4a6ea78ed587923a3699420d9cd19a714926f83813db4443a017264736f6c63430008040033",
  "immutableReferences": {},
  "source": "// SPDX-License-Identifier: MIT\npragma solidity >=0.4.22 <0.9.0;\nimport \"./Owned.sol\";\nimport \"./Logger.sol\";\nimport \"./IFaucet.sol\";\n\n/**\n * @title Faucet\n * @notice Simple faucet contract allowing anyone to deposit funds and\n *         accounts to withdraw a limited amount per transaction.\n * @dev Inherits ownership control and logging interface.\n */\ncontract Faucet is Owned, Logger, IFaucet {\n  uint public numOfFunders;\n\n  mapping(address => bool) private funders;\n  mapping(uint => address) private lutFunders;\n\n  /**\n   * @notice Enforces a maximum withdrawal amount of 0.1 ether.\n   * @param withdrawAmount The amount requested for withdrawal in wei.\n   */\n  modifier limitWithdraw(uint withdrawAmount) {\n    require(\n      withdrawAmount <= 100000000000000000,\n      \"Cannot withdraw more than 0.1 ether\"\n    );\n    _;\n  }\n\n  /// @notice Receive ether sent directly to the contract.\n  receive() external payable {}\n\n  /**\n   * @notice Example logger implementation.\n   * @return bytes32 Static \"Hello World\" value.\n   */\n  function emitLog() public override pure returns(bytes32) {\n    return \"Hello World\";\n  }\n\n  /**\n   * @notice Deposit funds into the faucet. First-time funders are tracked.\n   * @dev Increments `numOfFunders` on first funding from an address.\n   */\n  function addFunds() override external payable {\n    address funder = msg.sender;\n    test3();\n\n    if (!funders[funder]) {\n      uint index = numOfFunders++;\n      funders[funder] = true;\n      lutFunders[index] = funder;\n    }\n  }\n\n  /// @notice Owner-only test function for administrative actions.\n  function test1() external onlyOwner {\n    // some managing stuff that only admin should have access to\n  }\n\n  /// @notice Owner-only test function for administrative actions.\n  function test2() external onlyOwner {\n    // some managing stuff that only admin should have access to\n  }\n\n  /**\n   * @notice Withdraw funds from the faucet up to the limit.\n   * @param withdrawAmount Amount to withdraw in wei (must be <= 0.1 ether).\n   */\n  function withdraw(uint withdrawAmount) override external limitWithdraw(withdrawAmount) {\n    payable(msg.sender).transfer(withdrawAmount);\n  }\n\n  /**\n   * @notice Get a list of all unique funder addresses.\n   * @return address[] Array containing all funder addresses.\n   */\n  function getAllFunders() external view returns (address[] memory) {\n    address[] memory _funders = new address[](numOfFunders);\n\n    for (uint i = 0; i < numOfFunders; i++) {\n      _funders[i] = lutFunders[i];\n    }\n\n    return _funders;\n  }\n\n  /**\n   * @notice Get the funder address at a specific index.\n   * @param index Index into the internal funders list.\n   * @return address The funder address at the given index.\n   */\n  function getFunderAtIndex(uint8 index) external view returns(address) {\n    return lutFunders[index];\n  }\n}\n\n\n// const instance = await Faucet.deployed();\n\n// instance.addFunds({from: accounts[0], value: \"2000000000000000000\"})\n// instance.addFunds({from: accounts[1], value: \"2000000000000000000\"})\n\n// instance.withdraw(\"500000000000000000\", {from: accounts[1]})\n\n// instance.getFunderAtIndex(0)\n// instance.getAllFunders()\n",
  "sourcePath": "/Users/user/Keep Out/Development/Blockchain/blockchain/faucet-course-main/contracts/FaucetContract.sol",
  "compiler": {
    "name": "solc",
    "version": "0.8.4+commit.c7e474f2.Emscripten.clang"
  },
  "schemaVersion": "3.4.16",
  "updatedAt": "2025-11-05T03:52:18.709Z",
  "networkType": "ethereum",
  "devdoc": {
    "details": "Inherits ownership control and logging interface.",
    "kind": "dev",
    "methods": {
      "addFunds()": {
        "details": "Increments `numOfFunders` on first funding from an address."
      },
      "emitLog()": {
        "returns": {
          "_0": "bytes32 Static \"Hello World\" value."
        }
      },
      "getAllFunders()": {
        "returns": {
          "_0": "address[] Array containing all funder addresses."
        }
      },
      "getFunderAtIndex(uint8)": {
        "params": {
          "index": "Index into the internal funders list."
        },
        "returns": {
          "_0": "address The funder address at the given index."
        }
      },
      "test5()": {
        "returns": {
          "_0": "uint A constant value."
        }
      },
      "withdraw(uint256)": {
        "params": {
          "withdrawAmount": "Amount to withdraw in wei (must be <= 0.1 ether)."
        }
      }
    },
    "title": "Faucet",
    "version": 1
  },
  "userdoc": {
    "kind": "user",
    "methods": {
      "addFunds()": {
        "notice": "Deposit funds into the faucet. First-time funders are tracked."
      },
      "emitLog()": {
        "notice": "Example logger implementation."
      },
      "getAllFunders()": {
        "notice": "Get a list of all unique funder addresses."
      },
      "getFunderAtIndex(uint8)": {
        "notice": "Get the funder address at a specific index."
      },
      "test1()": {
        "notice": "Owner-only test function for administrative actions."
      },
      "test2()": {
        "notice": "Owner-only test function for administrative actions."
      },
      "test5()": {
        "notice": "External demo function calling an internal helper."
      },
      "withdraw(uint256)": {
        "notice": "Withdraw funds from the faucet up to the limit."
      }
    },
    "notice": "Simple faucet contract allowing anyone to deposit funds and         accounts to withdraw a limited amount per transaction.",
    "version": 1
  }
}