{
  "contractName": "Owned",
  "abi": [
    {
      "inputs": [],
      "stateMutability": "nonpayable",
      "type": "constructor"
    },
    {
      "inputs": [],
      "name": "owner",
      "outputs": [
        {
          "internalType": "address",
          "name": "",
          "type": "address"
        }
      ],
      "stateMutability": "view",
      "type": "function"
    }
  ],
  "bytecode": "0x608060405234801561001057600080fd5b50336000806101000a81548173ffffffffffffffffffffffffffffffffffffffff021916908373ffffffffffffffffffffffffffffffffffffffff16021790555060f78061005f6000396000f3fe6080604052348015600f57600080fd5b506004361060285760003560e01c80638da5cb5b14602d575b600080fd5b60336047565b604051603e91906078565b60405180910390f35b60008054906101000a900473ffffffffffffffffffffffffffffffffffffffff1681565b6072816091565b82525050565b6000602082019050608b6000830184606b565b92915050565b6000609a8260a1565b9050919050565b600073ffffffffffffffffffffffffffffffffffffffff8216905091905056fea2646970667358221220f203c6746244b2e02825782d9e51f821b6631ce7457be25a1199d6246716e45764736f6c63430008040033",
  "immutableReferences": {},
  "source": "// SPDX-License-Identifier: MIT\npragma solidity >=0.4.22 <0.9.0;\n\n/// @title Ownable pattern base contract\n/// @notice Provides a simple ownership model with an `onlyOwner` modifier.\ncontract Owned {\n  address public owner;\n\n  /// @notice Set the deployer as the initial owner.\n  constructor() {\n    owner = msg.sender;\n  }\n\n  /// @notice Restrict function usage to the contract owner.\n  modifier onlyOwner {\n    require(\n      msg.sender == owner,\n      \"Only owner can call this function\"\n    );\n    _;\n  }\n}\n",
  "sourcePath": "/Users/user/Keep Out/Development/Blockchain/blockchain/faucet-course-main/contracts/Owned.sol",
  "compiler": {
    "name": "solc",
    "version": "0.8.4+commit.c7e474f2.Emscripten.clang"
  },
  "schemaVersion": "3.4.16",
  "updatedAt": "2025-11-05T03:52:15.936Z",
  "devdoc": {
    "kind": "dev",
    "methods": {},
    "title": "Ownable pattern base contract",
    "version": 1
  },
  "userdoc": {
    "kind": "user",
    "methods": {
      "constructor": {
        "notice": "Set the deployer as the initial owner."
      }
    },
    "notice": "Provides a simple ownership model with an `onlyOwner` modifier.",
    "version": 1
  }
}